{
  "_format": "hh-sol-artifact-1",
  "contractName": "User",
  "sourceName": "contracts/User.sol",
  "abi": [
    {
      "inputs": [],
      "name": "getUserCount",
      "outputs": [
        {
          "internalType": "uint256",
          "name": "",
          "type": "uint256"
        }
      ],
      "stateMutability": "view",
      "type": "function"
    },
    {
      "inputs": [
        {
          "internalType": "string",
          "name": "_username",
          "type": "string"
        },
        {
          "internalType": "string",
          "name": "_password",
          "type": "string"
        }
      ],
      "name": "loginUser",
      "outputs": [
        {
          "internalType": "bool",
          "name": "",
          "type": "bool"
        }
      ],
      "stateMutability": "view",
      "type": "function"
    },
    {
      "inputs": [
        {
          "internalType": "string",
          "name": "_username",
          "type": "string"
        },
        {
          "internalType": "string",
          "name": "_password",
          "type": "string"
        }
      ],
      "name": "registerUser",
      "outputs": [
        {
          "internalType": "bool",
          "name": "",
          "type": "bool"
        }
      ],
      "stateMutability": "nonpayable",
      "type": "function"
    },
    {
      "inputs": [
        {
          "internalType": "uint256",
          "name": "",
          "type": "uint256"
        }
      ],
      "name": "users",
      "outputs": [
        {
          "internalType": "string",
          "name": "username",
          "type": "string"
        },
        {
          "internalType": "string",
          "name": "password",
          "type": "string"
        },
        {
          "internalType": "bool",
          "name": "registered",
          "type": "bool"
        }
      ],
      "stateMutability": "view",
      "type": "function"
    }
  ],
  "bytecode": "0x608060405234801561001057600080fd5b50610cf1806100206000396000f3fe608060405234801561001057600080fd5b506004361061004c5760003560e01c80631d2e4afd1461005157806322ce12e514610081578063365b98b2146100b1578063b5cb15f7146100e3575b600080fd5b61006b6004803603810190610066919061064b565b610101565b60405161007891906106de565b60405180910390f35b61009b6004803603810190610096919061064b565b610264565b6040516100a891906106de565b60405180910390f35b6100cb60048036038101906100c6919061072f565b610391565b6040516100da939291906107db565b60405180910390f35b6100eb6104e8565b6040516100f8919061082f565b60405180910390f35b600080600090505b6001805490508110156101aa57836040516020016101279190610886565b60405160208183030381529060405280519060200120600182815481106101515761015061089d565b5b906000526020600020906003020160000160405160200161017291906109c4565b604051602081830303815290604052805190602001200361019757600091505061025e565b80806101a290610a0a565b915050610109565b506001604051806060016040528085815260200184815260200160011515815250908060018154018082558091505060019003906000526020600020906003020160009091909190915060008201518160000190816102099190610be9565b50602082015181600101908161021f9190610be9565b5060408201518160020160006101000a81548160ff021916908315150217905550505060008081548092919061025490610a0a565b9190505550600190505b92915050565b600080600090505b600180549050811015610385578360405160200161028a9190610886565b60405160208183030381529060405280519060200120600182815481106102b4576102b361089d565b5b90600052602060002090600302016000016040516020016102d591906109c4565b604051602081830303815290604052805190602001200361037257826040516020016103019190610886565b604051602081830303815290604052805190602001206001828154811061032b5761032a61089d565b5b906000526020600020906003020160010160405160200161034c91906109c4565b604051602081830303815290604052805190602001200361037157600191505061038b565b5b808061037d90610a0a565b91505061026c565b50600090505b92915050565b600181815481106103a157600080fd5b90600052602060002090600302016000915090508060000180546103c4906108fb565b80601f01602080910402602001604051908101604052809291908181526020018280546103f0906108fb565b801561043d5780601f106104125761010080835404028352916020019161043d565b820191906000526020600020905b81548152906001019060200180831161042057829003601f168201915b505050505090806001018054610452906108fb565b80601f016020809104026020016040519081016040528092919081815260200182805461047e906108fb565b80156104cb5780601f106104a0576101008083540402835291602001916104cb565b820191906000526020600020905b8154815290600101906020018083116104ae57829003601f168201915b5050505050908060020160009054906101000a900460ff16905083565b60008054905090565b6000604051905090565b600080fd5b600080fd5b600080fd5b600080fd5b6000601f19601f8301169050919050565b7f4e487b7100000000000000000000000000000000000000000000000000000000600052604160045260246000fd5b6105588261050f565b810181811067ffffffffffffffff8211171561057757610576610520565b5b80604052505050565b600061058a6104f1565b9050610596828261054f565b919050565b600067ffffffffffffffff8211156105b6576105b5610520565b5b6105bf8261050f565b9050602081019050919050565b82818337600083830152505050565b60006105ee6105e98461059b565b610580565b90508281526020810184848401111561060a5761060961050a565b5b6106158482856105cc565b509392505050565b600082601f83011261063257610631610505565b5b81356106428482602086016105db565b91505092915050565b60008060408385031215610662576106616104fb565b5b600083013567ffffffffffffffff8111156106805761067f610500565b5b61068c8582860161061d565b925050602083013567ffffffffffffffff8111156106ad576106ac610500565b5b6106b98582860161061d565b9150509250929050565b60008115159050919050565b6106d8816106c3565b82525050565b60006020820190506106f360008301846106cf565b92915050565b6000819050919050565b61070c816106f9565b811461071757600080fd5b50565b60008135905061072981610703565b92915050565b600060208284031215610745576107446104fb565b5b60006107538482850161071a565b91505092915050565b600081519050919050565b600082825260208201905092915050565b60005b8381101561079657808201518184015260208101905061077b565b60008484015250505050565b60006107ad8261075c565b6107b78185610767565b93506107c7818560208601610778565b6107d08161050f565b840191505092915050565b600060608201905081810360008301526107f581866107a2565b9050818103602083015261080981856107a2565b905061081860408301846106cf565b949350505050565b610829816106f9565b82525050565b60006020820190506108446000830184610820565b92915050565b600081905092915050565b60006108608261075c565b61086a818561084a565b935061087a818560208601610778565b80840191505092915050565b60006108928284610855565b915081905092915050565b7f4e487b7100000000000000000000000000000000000000000000000000000000600052603260045260246000fd5b7f4e487b7100000000000000000000000000000000000000000000000000000000600052602260045260246000fd5b6000600282049050600182168061091357607f821691505b602082108103610926576109256108cc565b5b50919050565b60008190508160005260206000209050919050565b6000815461094e816108fb565b610958818661084a565b945060018216600081146109735760018114610988576109bb565b60ff19831686528115158202860193506109bb565b6109918561092c565b60005b838110156109b357815481890152600182019150602081019050610994565b838801955050505b50505092915050565b60006109d08284610941565b915081905092915050565b7f4e487b7100000000000000000000000000000000000000000000000000000000600052601160045260246000fd5b6000610a15826106f9565b91507fffffffffffffffffffffffffffffffffffffffffffffffffffffffffffffffff8203610a4757610a466109db565b5b600182019050919050565b60006020601f8301049050919050565b600082821b905092915050565b600060088302610a9f7fffffffffffffffffffffffffffffffffffffffffffffffffffffffffffffffff82610a62565b610aa98683610a62565b95508019841693508086168417925050509392505050565b6000819050919050565b6000610ae6610ae1610adc846106f9565b610ac1565b6106f9565b9050919050565b6000819050919050565b610b0083610acb565b610b14610b0c82610aed565b848454610a6f565b825550505050565b600090565b610b29610b1c565b610b34818484610af7565b505050565b5b81811015610b5857610b4d600082610b21565b600181019050610b3a565b5050565b601f821115610b9d57610b6e8161092c565b610b7784610a52565b81016020851015610b86578190505b610b9a610b9285610a52565b830182610b39565b50505b505050565b600082821c905092915050565b6000610bc060001984600802610ba2565b1980831691505092915050565b6000610bd98383610baf565b9150826002028217905092915050565b610bf28261075c565b67ffffffffffffffff811115610c0b57610c0a610520565b5b610c1582546108fb565b610c20828285610b5c565b600060209050601f831160018114610c535760008415610c41578287015190505b610c4b8582610bcd565b865550610cb3565b601f198416610c618661092c565b60005b82811015610c8957848901518255600182019150602085019450602081019050610c64565b86831015610ca65784890151610ca2601f891682610baf565b8355505b6001600288020188555050505b50505050505056fea2646970667358221220a9b7e180fc369364acc1cd1e8718560bbe6a0d00ffdc2e29fbb2e73a6bd4802664736f6c63430008120033",
  "linkReferences": {},
  "deployedLinkReferences": {}
}